{
  "contractName": "CalculatorV2",
  "abi": [
    {
      "constant": false,
      "inputs": [
        {
          "name": "num",
          "type": "uint256"
        }
      ],
      "name": "addToNumber",
      "outputs": [
        {
          "name": "",
          "type": "uint256"
        }
      ],
      "payable": false,
      "stateMutability": "nonpayable",
      "type": "function"
    },
    {
      "constant": false,
      "inputs": [
        {
          "name": "num",
          "type": "uint256"
        }
      ],
      "name": "substractNumber",
      "outputs": [
        {
          "name": "",
          "type": "uint256"
        }
      ],
      "payable": false,
      "stateMutability": "nonpayable",
      "type": "function"
    },
    {
      "constant": false,
      "inputs": [],
      "name": "double",
      "outputs": [
        {
          "name": "",
          "type": "uint256"
        }
      ],
      "payable": false,
      "stateMutability": "nonpayable",
      "type": "function"
    },
    {
      "constant": false,
      "inputs": [],
      "name": "halve",
      "outputs": [
        {
          "name": "",
          "type": "uint256"
        }
      ],
      "payable": false,
      "stateMutability": "nonpayable",
      "type": "function"
    },
    {
      "constant": false,
      "inputs": [
        {
          "name": "num",
          "type": "uint256"
        }
      ],
      "name": "multiplyWithNumber",
      "outputs": [
        {
          "name": "",
          "type": "uint256"
        }
      ],
      "payable": false,
      "stateMutability": "nonpayable",
      "type": "function"
    },
    {
      "constant": true,
      "inputs": [],
      "name": "getResult",
      "outputs": [
        {
          "name": "",
          "type": "uint256"
        }
      ],
      "payable": false,
      "stateMutability": "view",
      "type": "function"
    },
    {
      "constant": false,
      "inputs": [
        {
          "name": "num",
          "type": "uint256"
        }
      ],
      "name": "divideByNumber",
      "outputs": [
        {
          "name": "",
          "type": "uint256"
        }
      ],
      "payable": false,
      "stateMutability": "nonpayable",
      "type": "function"
    },
    {
      "inputs": [
        {
          "name": "num",
          "type": "uint256"
        }
      ],
      "payable": false,
      "stateMutability": "nonpayable",
      "type": "constructor"
    },
    {
      "anonymous": false,
      "inputs": [
        {
          "indexed": false,
          "name": "n",
          "type": "uint256"
        }
      ],
      "name": "NumberAdded",
      "type": "event"
    },
    {
      "anonymous": false,
      "inputs": [
        {
          "indexed": false,
          "name": "n",
          "type": "uint256"
        }
      ],
      "name": "NumberSubtracted",
      "type": "event"
    },
    {
      "anonymous": false,
      "inputs": [
        {
          "indexed": false,
          "name": "n",
          "type": "uint256"
        }
      ],
      "name": "NumberMultiplied",
      "type": "event"
    },
    {
      "anonymous": false,
      "inputs": [
        {
          "indexed": false,
          "name": "n",
          "type": "uint256"
        }
      ],
      "name": "NumberDivided",
      "type": "event"
    },
    {
      "anonymous": false,
      "inputs": [
        {
          "indexed": false,
          "name": "n",
          "type": "uint256"
        }
      ],
      "name": "ResultDoubled",
      "type": "event"
    },
    {
      "anonymous": false,
      "inputs": [
        {
          "indexed": false,
          "name": "n",
          "type": "uint256"
        }
      ],
      "name": "ResultHalved",
      "type": "event"
    }
  ],
  "bytecode": "0x6060604052341561000f57600080fd5b604051602080610456833981016040528080519060200190919050508060008190555050610414806100426000396000f300606060405260043610610083576000357c0100000000000000000000000000000000000000000000000000000000900463ffffffff16806306ccd230146100885780630b7e4e7f146100bf5780638fdb7189146100f65780639dc9340a1461011f578063b4679b0614610148578063de2927891461017f578063f5cb911d146101a8575b600080fd5b341561009357600080fd5b6100a960048080359060200190919050506101df565b6040518082815260200191505060405180910390f35b34156100ca57600080fd5b6100e06004808035906020019091905050610231565b6040518082815260200191505060405180910390f35b341561010157600080fd5b610109610283565b6040518082815260200191505060405180910390f35b341561012a57600080fd5b6101326102d6565b6040518082815260200191505060405180910390f35b341561015357600080fd5b6101696004808035906020019091905050610332565b6040518082815260200191505060405180910390f35b341561018a57600080fd5b610192610384565b6040518082815260200191505060405180910390f35b34156101b357600080fd5b6101c9600480803590602001909190505061038d565b6040518082815260200191505060405180910390f35b60008160008082825401925050819055507fae3addfccd9152bd45552621c986157cf223c02d568e9c2c678baa8dbf81a233826040518082815260200191505060405180910390a16000549050919050565b60008160008082825403925050819055507f439edab735a689015068ab41d6d30bd005705cfa5a000161404fafd0c7b78673826040518082815260200191505060405180910390a16000549050919050565b6000600260008082825402925050819055507f9800055e1dcffa951b7ed4f03aad9d88ca93c7775da8bb44346f8bfa7da23b646000546040518082815260200191505060405180910390a1600054905090565b600060026000808282548115156102e957fe5b04925050819055507f29a14677a9e76e6edcbe125cc6be754eca3a5942424a902b2cb632cb2e12fa446000546040518082815260200191505060405180910390a1600054905090565b60008160008082825402925050819055507fa895b6fc5616dc5f28ac38cbba65bf73cc432c1d07abc566c2ee5a77d7e14b75826040518082815260200191505060405180910390a16000549050919050565b60008054905090565b60008160008082825481151561039f57fe5b04925050819055507fed0bc23928add0162a999d4ea2049c291319a7a8963d7e72136b37c73ee4f991826040518082815260200191505060405180910390a160005490509190505600a165627a7a723058209dee0818b38ef4b9f140d597fd4ddfadc6039d0355bdb17b7f50e9c6886389d20029",
  "source": "pragma solidity ^0.4.6;\n\ncontract CalculatorV2 {\n\n  uint result;\n\n  event NumberAdded(uint n);\n  event NumberSubtracted(uint n);\n  event NumberMultiplied(uint n);\n  event NumberDivided(uint n);\n  event ResultDoubled(uint n);\n  event ResultHalved(uint n);\n\n  function CalculatorV2(uint num) public {\n    // constructor\n    result = num;\n  }\n\n  // returns the result\n  function getResult() public constant returns (uint) {\n    return result;\n  }\n\n  // result = result + num\n  function addToNumber(uint num) public returns (uint) {\n    result += num;\n    NumberAdded(num);\n    return result;\n  }\n\n  // result = result - num\n  function substractNumber(uint num) public returns (uint) {\n    result -= num;\n    NumberSubtracted(num);\n    return result;\n  }\n\n  // result = result * num\n  function multiplyWithNumber(uint num) public returns (uint) {\n    result *= num;\n    NumberMultiplied(num);\n    return result;\n  }\n\n  // result = result / num\n  function divideByNumber(uint num) public returns (uint) {\n    result /= num;\n    NumberDivided(num);\n    return result;\n  }\n\n  // result = result * 2\n  function double() public returns (uint) {\n    result *= 2;\n    ResultDoubled(result);\n    return result;\n  }\n\n  // result = result / 2\n  function halve() public returns (uint) {\n    result /= 2;\n    ResultHalved(result);\n    return result;\n  }\n\n}\n",
  "sourcePath": "/Volumes/Secomba/cstift/Boxcryptor/OneDrive/Uni/FH_Technikum_Wien/6_Blockchain/Udemy_Rajeev/Blockchain-Course-Calculator/contracts/CalculatorV2.sol",
  "compiler": {
    "name": "solc",
    "version": "0.4.18+commit.9cf6e910.Emscripten.clang"
  },
  "schemaVersion": "1.0.1",
  "updatedAt": "2018-03-08T10:52:46.901Z"
}