{
  "contractName": "HelloEthereumString",
  "abi": [
    {
      "constant": false,
      "inputs": [
        {
          "name": "name",
          "type": "string"
        }
      ],
      "name": "hello",
      "outputs": [],
      "payable": false,
      "stateMutability": "nonpayable",
      "type": "function"
    },
    {
      "constant": true,
      "inputs": [],
      "name": "getNames",
      "outputs": [
        {
          "name": "lastCaller",
          "type": "string"
        },
        {
          "name": "callerName",
          "type": "string"
        }
      ],
      "payable": false,
      "stateMutability": "view",
      "type": "function"
    },
    {
      "constant": true,
      "inputs": [],
      "name": "lastCallerName",
      "outputs": [
        {
          "name": "",
          "type": "string"
        }
      ],
      "payable": false,
      "stateMutability": "view",
      "type": "function"
    },
    {
      "inputs": [],
      "payable": false,
      "stateMutability": "nonpayable",
      "type": "constructor"
    },
    {
      "anonymous": false,
      "inputs": [
        {
          "indexed": true,
          "name": "name",
          "type": "string"
        }
      ],
      "name": "HelloInvoked",
      "type": "event"
    }
  ],
  "bytecode": "0x6060604052341561000f57600080fd5b6040805190810160405280600781526020017f6e6f742d736574000000000000000000000000000000000000000000000000008152506000908051906020019061005a929190610060565b50610105565b828054600181600116156101000203166002900490600052602060002090601f016020900481019282601f106100a157805160ff19168380011785556100cf565b828001600101855582156100cf579182015b828111156100ce5782518255916020019190600101906100b3565b5b5090506100dc91906100e0565b5090565b61010291905b808211156100fe5760008160009055506001016100e6565b5090565b90565b61064c806101146000396000f300606060405260043610610057576000357c0100000000000000000000000000000000000000000000000000000000900463ffffffff168063a777d0dc1461005c578063cd838f0f146100b9578063e841737a146101b3575b600080fd5b341561006757600080fd5b6100b7600480803590602001908201803590602001908080601f01602080910402602001604051908101604052809392919081815260200183838082843782019150505050505091905050610241565b005b34156100c457600080fd5b6100cc61033e565b604051808060200180602001838103835285818151815260200191508051906020019080838360005b838110156101105780820151818401526020810190506100f5565b50505050905090810190601f16801561013d5780820380516001836020036101000a031916815260200191505b50838103825284818151815260200191508051906020019080838360005b8381101561017657808201518184015260208101905061015b565b50505050905090810190601f1680156101a35780820380516001836020036101000a031916815260200191505b5094505050505060405180910390f35b34156101be57600080fd5b6101c66104c9565b6040518080602001828103825283818151815260200191508051906020019080838360005b838110156102065780820151818401526020810190506101eb565b50505050905090810190601f1680156102335780820380516001836020036101000a031916815260200191505b509250505060405180910390f35b806040518082805190602001908083835b6020831015156102775780518252602082019150602081019050602083039250610252565b6001836020036101000a03801982511681845116808217855250505050505090500191505060405180910390207f84c1a0d0efe2d968c80240d80e524822f1e7a941a4e9426bb2896c023344092560405160405180910390a280600160003373ffffffffffffffffffffffffffffffffffffffff1673ffffffffffffffffffffffffffffffffffffffff1681526020019081526020016000209080519060200190610323929190610567565b50806000908051906020019061033a929190610567565b5050565b6103466105e7565b61034e6105e7565b60008054600181600116156101000203166002900480601f0160208091040260200160405190810160405280929190818152602001828054600181600116156101000203166002900480156103e45780601f106103b9576101008083540402835291602001916103e4565b820191906000526020600020905b8154815290600101906020018083116103c757829003601f168201915b50505050509150600160003373ffffffffffffffffffffffffffffffffffffffff1673ffffffffffffffffffffffffffffffffffffffff1681526020019081526020016000208054600181600116156101000203166002900480601f0160208091040260200160405190810160405280929190818152602001828054600181600116156101000203166002900480156104be5780601f10610493576101008083540402835291602001916104be565b820191906000526020600020905b8154815290600101906020018083116104a157829003601f168201915b505050505090509091565b60008054600181600116156101000203166002900480601f01602080910402602001604051908101604052809291908181526020018280546001816001161561010002031660029004801561055f5780601f106105345761010080835404028352916020019161055f565b820191906000526020600020905b81548152906001019060200180831161054257829003601f168201915b505050505081565b828054600181600116156101000203166002900490600052602060002090601f016020900481019282601f106105a857805160ff19168380011785556105d6565b828001600101855582156105d6579182015b828111156105d55782518255916020019190600101906105ba565b5b5090506105e391906105fb565b5090565b602060405190810160405280600081525090565b61061d91905b80821115610619576000816000905550600101610601565b5090565b905600a165627a7a72305820f1da8aba6025e0cb897b89777b0ceebd1b225e1dd67785a68e535d3fb4a3aa820029",
  "source": "pragma solidity ^0.4.4;\n\ncontract HelloEthereumString {\n\n  // Storage variable for holding last caller\n  // Declaring a storage variable public leads to\n  // Automatic generation of getter lastCallerName()\n  string public  lastCallerName;\n\n  // Storage variable for holding the \n  mapping(address => string)  addressNames;\n\n  // Event gets emitted everytime someone calls the hello function\n  event HelloInvoked(string indexed name);\n\n  function HelloEthereumString() public {\n    // constructor\n    lastCallerName = 'not-set';\n  }\n\n  /**\n   * Receives a string of 32 bytes\n   * 1. Generates an event \n   * 2. Adds the address-name to the mapping\n   * 3. Set the last caller name\n   **/\n  function  hello(string name) public {\n    // Invoke the event\n    HelloInvoked(name);\n\n    // Add to mapping\n    addressNames[msg.sender] = name;\n\n    // Set the last caller name\n    lastCallerName = name;\n  }\n\n  /**\n   * Return 2 values\n   * 1. Last Caller Name\n   * 2. Caller's name if it is there in the mapping\n   **/\n  function  getNames() public constant returns (string lastCaller, string callerName){\n    lastCaller = lastCallerName;\n    callerName = addressNames[msg.sender];\n    \n  }\n}\n",
  "sourcePath": "/Volumes/Secomba/cstift/Boxcryptor/OneDrive/Uni/FH_Technikum_Wien/6_Blockchain/Udemy_Rajeev/Blockchain-Course-Calculator/contracts/HelloEthereumString.sol",
  "compiler": {
    "name": "solc",
    "version": "0.4.18+commit.9cf6e910.Emscripten.clang"
  },
  "schemaVersion": "1.0.1",
  "updatedAt": "2018-03-08T10:52:46.054Z"
}