{
  "contractName": "InteractionChannel",
  "abi": [
    {
      "constant": false,
      "inputs": [
        {
          "name": "yourName",
          "type": "bytes32"
        }
      ],
      "name": "interact",
      "outputs": [],
      "payable": false,
      "stateMutability": "nonpayable",
      "type": "function"
    },
    {
      "constant": true,
      "inputs": [],
      "name": "currentName",
      "outputs": [
        {
          "name": "",
          "type": "bytes32"
        }
      ],
      "payable": false,
      "stateMutability": "view",
      "type": "function"
    },
    {
      "constant": true,
      "inputs": [],
      "name": "fromAddres",
      "outputs": [
        {
          "name": "",
          "type": "address"
        }
      ],
      "payable": false,
      "stateMutability": "view",
      "type": "function"
    },
    {
      "constant": true,
      "inputs": [],
      "name": "lastUpdatedMinutes",
      "outputs": [
        {
          "name": "",
          "type": "uint256"
        }
      ],
      "payable": false,
      "stateMutability": "view",
      "type": "function"
    },
    {
      "anonymous": false,
      "inputs": [
        {
          "indexed": true,
          "name": "name",
          "type": "bytes32"
        },
        {
          "indexed": true,
          "name": "addr",
          "type": "address"
        },
        {
          "indexed": true,
          "name": "timeUpdated",
          "type": "uint256"
        }
      ],
      "name": "Interaction",
      "type": "event"
    }
  ],
  "bytecode": "0x6060604052341561000f57600080fd5b6102798061001e6000396000f300606060405260043610610062576000357c0100000000000000000000000000000000000000000000000000000000900463ffffffff16806312e92de314610067578063627776621461008e5780638c659ab7146100bf578063bd5b383714610114575b600080fd5b341561007257600080fd5b61008c60048080356000191690602001909190505061013d565b005b341561009957600080fd5b6100a1610202565b60405180826000191660001916815260200191505060405180910390f35b34156100ca57600080fd5b6100d261020b565b604051808273ffffffffffffffffffffffffffffffffffffffff1673ffffffffffffffffffffffffffffffffffffffff16815260200191505060405180910390f35b341561011f57600080fd5b610127610235565b6040518082815260200191505060405180910390f35b806000816000191690555033600260006101000a81548173ffffffffffffffffffffffffffffffffffffffff021916908373ffffffffffffffffffffffffffffffffffffffff16021790555042600181905550600154600260009054906101000a900473ffffffffffffffffffffffffffffffffffffffff1673ffffffffffffffffffffffffffffffffffffffff16600054600019167f8c3f8124db3586b01b1a3687e65ac69ea4815aa8e9479454b8a8963bf1c6c2a860405160405180910390a450565b60008054905090565b6000600260009054906101000a900473ffffffffffffffffffffffffffffffffffffffff16905090565b6000603c600154420381151561024757fe5b049050905600a165627a7a72305820e7dc45f6a1dfd17e6a0161f6f12eef813a05ce9bdafcea358ba61a4e62592b280029",
  "source": "pragma solidity ^0.4.4;\n\n/**\n * Part of a course on Blockchain\n **/\ncontract InteractionChannel {\n\n  bytes32 name;\n  uint    lastUpdate;\n  address lastAddress;\n\n  event Interaction(bytes32 indexed name, address  indexed addr, uint indexed timeUpdated);\n\n\n  function  currentName() public constant  returns(bytes32){\n    return name;\n  }\n\n  function  lastUpdatedMinutes() public constant  returns(uint){\n    return ((now - lastUpdate)/60);\n  }\n\n  function  fromAddres() public constant returns(address){\n    return lastAddress;\n  }\n\n  function interact(bytes32 yourName) public {\n    name = yourName;\n    lastAddress = msg.sender;\n    lastUpdate = now;\n    Interaction(name,lastAddress,lastUpdate);\n  }\n\n}\n",
  "sourcePath": "/Volumes/Secomba/cstift/Boxcryptor/OneDrive/Uni/FH_Technikum_Wien/6_Blockchain/Udemy_Rajeev/Blockchain-Course-Calculator/contracts/InteractionChannel.sol",
  "compiler": {
    "name": "solc",
    "version": "0.4.18+commit.9cf6e910.Emscripten.clang"
  },
  "schemaVersion": "1.0.1",
  "updatedAt": "2018-03-08T10:52:46.052Z"
}